{
  "contractName": "AssetManagement",
  "abi": [
    {
      "anonymous": false,
      "inputs": [
        {
          "indexed": false,
          "internalType": "string",
          "name": "uuid",
          "type": "string"
        },
        {
          "indexed": false,
          "internalType": "address",
          "name": "owner",
          "type": "address"
        }
      ],
      "name": "AssetCreated",
      "type": "event"
    },
    {
      "anonymous": false,
      "inputs": [
        {
          "indexed": false,
          "internalType": "string",
          "name": "uuid",
          "type": "string"
        },
        {
          "indexed": false,
          "internalType": "address",
          "name": "from",
          "type": "address"
        },
        {
          "indexed": false,
          "internalType": "address",
          "name": "to",
          "type": "address"
        }
      ],
      "name": "OwnershipTransferred",
      "type": "event"
    },
    {
      "inputs": [
        {
          "internalType": "string",
          "name": "",
          "type": "string"
        },
        {
          "internalType": "uint256",
          "name": "",
          "type": "uint256"
        }
      ],
      "name": "assetHistory",
      "outputs": [
        {
          "internalType": "address",
          "name": "",
          "type": "address"
        }
      ],
      "stateMutability": "view",
      "type": "function",
      "constant": true
    },
    {
      "inputs": [
        {
          "internalType": "string",
          "name": "",
          "type": "string"
        }
      ],
      "name": "assets",
      "outputs": [
        {
          "internalType": "string",
          "name": "uuid",
          "type": "string"
        },
        {
          "internalType": "address",
          "name": "owner",
          "type": "address"
        },
        {
          "internalType": "string",
          "name": "details",
          "type": "string"
        }
      ],
      "stateMutability": "view",
      "type": "function",
      "constant": true
    },
    {
      "inputs": [
        {
          "internalType": "string",
          "name": "_uuid",
          "type": "string"
        },
        {
          "internalType": "string",
          "name": "_details",
          "type": "string"
        }
      ],
      "name": "createAsset",
      "outputs": [],
      "stateMutability": "nonpayable",
      "type": "function"
    },
    {
      "inputs": [
        {
          "internalType": "string",
          "name": "_uuid",
          "type": "string"
        },
        {
          "internalType": "address",
          "name": "_newOwner",
          "type": "address"
        }
      ],
      "name": "transferOwnership",
      "outputs": [],
      "stateMutability": "nonpayable",
      "type": "function"
    },
    {
      "inputs": [
        {
          "internalType": "string",
          "name": "_uuid",
          "type": "string"
        }
      ],
      "name": "getAssetOwner",
      "outputs": [
        {
          "internalType": "address",
          "name": "",
          "type": "address"
        }
      ],
      "stateMutability": "view",
      "type": "function",
      "constant": true
    },
    {
      "inputs": [
        {
          "internalType": "string",
          "name": "_uuid",
          "type": "string"
        }
      ],
      "name": "getAssetHistory",
      "outputs": [
        {
          "internalType": "address[]",
          "name": "",
          "type": "address[]"
        }
      ],
      "stateMutability": "view",
      "type": "function",
      "constant": true
    }
  ],
  "bytecode": "0x608060405234801561001057600080fd5b50611010806100206000396000f3fe608060405234801561001057600080fd5b50600436106100625760003560e01c806303cfc76d14610067578063744585531461009757806385936228146100c7578063a2a55b68146100f9578063c0e793c214610115578063e44bce4014610131575b600080fd5b610081600480360381019061007c91906109b2565b610161565b60405161008e9190610cb7565b60405180910390f35b6100b160048036038101906100ac9190610ab3565b61020d565b6040516100be9190610c9c565b60405180910390f35b6100e160048036038101906100dc91906109b2565b610271565b6040516100f093929190610d47565b60405180910390f35b610113600480360381019061010e9190610a47565b6103e1565b005b61012f600480360381019061012a91906109f3565b610620565b005b61014b600480360381019061014691906109b2565b610833565b6040516101589190610c9c565b60405180910390f35b60606001826040516101739190610c85565b908152602001604051809103902080548060200260200160405190810160405280929190818152602001828054801561020157602002820191906000526020600020905b8160009054906101000a900473ffffffffffffffffffffffffffffffffffffffff1673ffffffffffffffffffffffffffffffffffffffff16815260200190600101908083116101b7575b50505050509050919050565b600182805160208101820180518482526020830160208501208183528095505050505050818154811061023f57600080fd5b906000526020600020016000915091509054906101000a900473ffffffffffffffffffffffffffffffffffffffff1681565b6000818051602081018201805184825260208301602085012081835280955050505050506000915090508060000180546102aa90610f0b565b80601f01602080910402602001604051908101604052809291908181526020018280546102d690610f0b565b80156103235780601f106102f857610100808354040283529160200191610323565b820191906000526020600020905b81548152906001019060200180831161030657829003601f168201915b5050505050908060010160009054906101000a900473ffffffffffffffffffffffffffffffffffffffff169080600201805461035e90610f0b565b80601f016020809104026020016040519081016040528092919081815260200182805461038a90610f0b565b80156103d75780601f106103ac576101008083540402835291602001916103d7565b820191906000526020600020905b8154815290600101906020018083116103ba57829003601f168201915b5050505050905083565b600073ffffffffffffffffffffffffffffffffffffffff166000836040516104099190610c85565b908152602001604051809103902060010160009054906101000a900473ffffffffffffffffffffffffffffffffffffffff1673ffffffffffffffffffffffffffffffffffffffff1614610491576040517f08c379a000000000000000000000000000000000000000000000000000000000815260040161048890610d8c565b60405180910390fd5b60405180606001604052808381526020013373ffffffffffffffffffffffffffffffffffffffff168152602001828152506000836040516104d29190610c85565b908152602001604051809103902060008201518160000190805190602001906104fc92919061087d565b5060208201518160010160006101000a81548173ffffffffffffffffffffffffffffffffffffffff021916908373ffffffffffffffffffffffffffffffffffffffff160217905550604082015181600201908051906020019061056092919061087d565b509050506001826040516105749190610c85565b9081526020016040518091039020339080600181540180825580915050600190039060005260206000200160009091909190916101000a81548173ffffffffffffffffffffffffffffffffffffffff021916908373ffffffffffffffffffffffffffffffffffffffff1602179055507f9384fea79f41506c532ad541214d7c107830ef5d7cf5c06a60edc467c67ed3d98233604051610614929190610cd9565b60405180910390a15050565b3373ffffffffffffffffffffffffffffffffffffffff166000836040516106479190610c85565b908152602001604051809103902060010160009054906101000a900473ffffffffffffffffffffffffffffffffffffffff1673ffffffffffffffffffffffffffffffffffffffff16146106cf576040517f08c379a00000000000000000000000000000000000000000000000000000000081526004016106c690610dac565b60405180910390fd5b600080836040516106e09190610c85565b908152602001604051809103902060010160009054906101000a900473ffffffffffffffffffffffffffffffffffffffff169050816000846040516107259190610c85565b908152602001604051809103902060010160006101000a81548173ffffffffffffffffffffffffffffffffffffffff021916908373ffffffffffffffffffffffffffffffffffffffff1602179055506001836040516107849190610c85565b9081526020016040518091039020829080600181540180825580915050600190039060005260206000200160009091909190916101000a81548173ffffffffffffffffffffffffffffffffffffffff021916908373ffffffffffffffffffffffffffffffffffffffff1602179055507f6840904f5b31827f74e1497360da245f56e530c8c3de3163a2d31f11493273c683828460405161082693929190610d09565b60405180910390a1505050565b600080826040516108449190610c85565b908152602001604051809103902060010160009054906101000a900473ffffffffffffffffffffffffffffffffffffffff169050919050565b82805461088990610f0b565b90600052602060002090601f0160209004810192826108ab57600085556108f2565b82601f106108c457805160ff19168380011785556108f2565b828001600101855582156108f2579182015b828111156108f15782518255916020019190600101906108d6565b5b5090506108ff9190610903565b5090565b5b8082111561091c576000816000905550600101610904565b5090565b600061093361092e84610dfd565b610dcc565b90508281526020810184848401111561094b57600080fd5b610956848285610ec9565b509392505050565b60008135905061096d81610fac565b92915050565b600082601f83011261098457600080fd5b8135610994848260208601610920565b91505092915050565b6000813590506109ac81610fc3565b92915050565b6000602082840312156109c457600080fd5b600082013567ffffffffffffffff8111156109de57600080fd5b6109ea84828501610973565b91505092915050565b60008060408385031215610a0657600080fd5b600083013567ffffffffffffffff811115610a2057600080fd5b610a2c85828601610973565b9250506020610a3d8582860161095e565b9150509250929050565b60008060408385031215610a5a57600080fd5b600083013567ffffffffffffffff811115610a7457600080fd5b610a8085828601610973565b925050602083013567ffffffffffffffff811115610a9d57600080fd5b610aa985828601610973565b9150509250929050565b60008060408385031215610ac657600080fd5b600083013567ffffffffffffffff811115610ae057600080fd5b610aec85828601610973565b9250506020610afd8582860161099d565b9150509250929050565b6000610b138383610b1f565b60208301905092915050565b610b2881610e8d565b82525050565b610b3781610e8d565b82525050565b6000610b4882610e3d565b610b528185610e60565b9350610b5d83610e2d565b8060005b83811015610b8e578151610b758882610b07565b9750610b8083610e53565b925050600181019050610b61565b5085935050505092915050565b6000610ba682610e48565b610bb08185610e71565b9350610bc0818560208601610ed8565b610bc981610f9b565b840191505092915050565b6000610bdf82610e48565b610be98185610e82565b9350610bf9818560208601610ed8565b80840191505092915050565b6000610c12601583610e71565b91507f417373657420616c7265616479206578697374732e00000000000000000000006000830152602082019050919050565b6000610c52601883610e71565b91507f4f6e6c79206f776e65722063616e207472616e736665722e00000000000000006000830152602082019050919050565b6000610c918284610bd4565b915081905092915050565b6000602082019050610cb16000830184610b2e565b92915050565b60006020820190508181036000830152610cd18184610b3d565b905092915050565b60006040820190508181036000830152610cf38185610b9b565b9050610d026020830184610b2e565b9392505050565b60006060820190508181036000830152610d238186610b9b565b9050610d326020830185610b2e565b610d3f6040830184610b2e565b949350505050565b60006060820190508181036000830152610d618186610b9b565b9050610d706020830185610b2e565b8181036040830152610d828184610b9b565b9050949350505050565b60006020820190508181036000830152610da581610c05565b9050919050565b60006020820190508181036000830152610dc581610c45565b9050919050565b6000604051905081810181811067ffffffffffffffff82111715610df357610df2610f6c565b5b8060405250919050565b600067ffffffffffffffff821115610e1857610e17610f6c565b5b601f19601f8301169050602081019050919050565b6000819050602082019050919050565b600081519050919050565b600081519050919050565b6000602082019050919050565b600082825260208201905092915050565b600082825260208201905092915050565b600081905092915050565b6000610e9882610e9f565b9050919050565b600073ffffffffffffffffffffffffffffffffffffffff82169050919050565b6000819050919050565b82818337600083830152505050565b60005b83811015610ef6578082015181840152602081019050610edb565b83811115610f05576000848401525b50505050565b60006002820490506001821680610f2357607f821691505b60208210811415610f3757610f36610f3d565b5b50919050565b7f4e487b7100000000000000000000000000000000000000000000000000000000600052602260045260246000fd5b7f4e487b7100000000000000000000000000000000000000000000000000000000600052604160045260246000fd5b6000601f19601f8301169050919050565b610fb581610e8d565b8114610fc057600080fd5b50565b610fcc81610ebf565b8114610fd757600080fd5b5056fea2646970667358221220fdda4453cdca80ea1200f7a83f137da11cd8f92d1027eed90c4a29c1ab2c0dc164736f6c63430008000033",
  "immutableReferences": {},
  "source": "// SPDX-License-Identifier: MIT\npragma solidity ^0.8.0;\n\ncontract AssetManagement {\n    struct Asset {\n        string uuid;\n        address owner;\n        string details;\n    }\n\n    mapping(string => Asset) public assets;\n    mapping(string => address[]) public assetHistory;\n\n    event AssetCreated(string uuid, address owner);\n    event OwnershipTransferred(string uuid, address from, address to);\n\n    function createAsset(string memory _uuid, string memory _details) public {\n        require(assets[_uuid].owner == address(0), \"Asset already exists.\");\n        assets[_uuid] = Asset(_uuid, msg.sender, _details);\n        assetHistory[_uuid].push(msg.sender);\n        emit AssetCreated(_uuid, msg.sender);\n    }\n\n    function transferOwnership(string memory _uuid, address _newOwner) public {\n        require(assets[_uuid].owner == msg.sender, \"Only owner can transfer.\");\n        address previousOwner = assets[_uuid].owner;\n        assets[_uuid].owner = _newOwner;\n        assetHistory[_uuid].push(_newOwner);\n        emit OwnershipTransferred(_uuid, previousOwner, _newOwner);\n    }\n\n    function getAssetOwner(string memory _uuid) public view returns (address) {\n        return assets[_uuid].owner;\n    }\n\n    function getAssetHistory(string memory _uuid) public view returns (address[] memory) {\n        return assetHistory[_uuid];\n    }\n}",
  "sourcePath": "/home/Rudraksh/Desktop/asset-token/blockchain/contracts/AssetManagement.sol",
  "compiler": {
    "name": "solc",
    "version": "0.8.0+commit.c7dfd78e.Emscripten.clang"
  },
  "schemaVersion": "3.4.16",
  "updatedAt": "2024-11-13T18:48:20.128Z",
  "networkType": "ethereum",
  "devdoc": {
    "kind": "dev",
    "methods": {},
    "version": 1
  },
  "userdoc": {
    "kind": "user",
    "methods": {},
    "version": 1
  }
}